:0400000081EF00F09C
:10000800A740A740A740A7404000A7404000A740FE
:10001800A740A740A740A740A740A740A740A740A0
:10002800A740400040004000A740A740A740A74085
:10003800A740A740A740A740A740A740A740A74080
:10004800A740A740A740A74040004000A740A740BE
:10005800A740A740A7404000A740A740A740A74007
:10006800A740A740A740A740A740A740A740A74050
:10007800A740A740A740A7404000A740A740A740E7
:10008800A740A740A740A740A740A740A740A74030
:10009800A740A740A740A7404000A7404000400015
:1000A800A7408740A740A740A740A740A740A74030
:1000B800A740A740A740A740A740A740A740A74000
:1000C800A740A740A740A740A740A740A740A740F0
:1000D800A740A740A740A740A740A740A740A740E0
:1000E8004000A740A740A740400040004000400013
:0E00F800A740A740A740A740FF003FEF81F0C0
:10BFFE00004C00FEA205BD49E19D0002CA10F79A51
:10C00E0086882049FEA94C85A1A21CBD4EE195BB98
:10C01E00CAD0F8A212BD6BE19500CA10F8A900852E
:10C02E00DC85DF85B28567A90E8564A90385A0A28C
:10C03E0068866520CDC8A97EA0E1200EC9205BC20E
:10C04E0086C384C420C200D01FA000E611D008E62B
:10C05E0012A512C9B0F01DA9559111D111D0150A12
:10C06E009111D111F0E5D00C20F3D9A5ACC998B03F
:10C07E00A22034D5A511A412C0039097858584867D
:10C08E0085818482A000A2038479867AA00098918B
:10C09E0079E67920CDC8A98DA0E1200EC9208AC3EA
:10C0AE00A58538E579AAA586E57A20CFDAA9A6A0D6
:10C0BE00E1200EC9A96AA0C1850184026C0100208D
:10C0CE001BC1857F848038A5A6E5AAA8A5A7E5ABE8
:10C0DE00AAE898F0243849FF65A685A6B003C6A73E
:10C0EE00389849FF65A485A4B008C6A59004B1A6EA
:10C0FE0091A488D0F9B1A691A4C6A7C6A5CAD0F2BC
:10C10E00601869108578BAE478903060C482902AFD
:10C11E00D004C581902448A2089848B5A3CA10FA45
:10C12E00201FD2A2006895A4E8E00830F868A8683D
:10C13E00C4829006D005C581B00160A20C20CDC886
:10C14E00BD01E7BC02E7200EC920C3C3A967A0E862
:10C15E00200EC9A488C8F00320C4DAA90085DF85A3
:10C16E00DCA978A0E8200EC9206DC286C384C42045
:10C17E00C200F0F4A2FF8688900620ACC24C2CC5FB
:10C18E00208DC720ACC2845D205EC39044A001B157
:10C19E00AA8572A57B8571A5AB8574A5AA88F1AA1F
:10C1AE0018657B857B8573A57C69FF857CE5ABAACD
:10C1BE0038A5AAE57BA8B003E8C67418657190038C
:10C1CE00C67218B1719173C8D0F9E672E674CAD00E
:10C1DE00F2A514F03FA585A48685818482A57B8572
:10C1EE00A6A47C84A7655D9001C885A484A520CEF5
:10C1FE00C0A57FA480857B847CA45D88B910009146
:10C20E00AA88C003D0F6A51291AA88A51191AA8872
:10C21E00A9FF91AAA679A57AA00186718572B1713E
:10C22E00F018A004C8B171D0FB38986571AAA000AF
:10C23E009171986572C8917190E08A186902857B38
:10C24E00A5726900857C209FC34C77C12026C9202A
:10C25E0023C9D00A8AF009A97F2028C9CA2CA200B6
:10C26E00203DE190FBF0F9C903D0034C6BC5C90723
:10C27E00F01FC90AF020C90DF01CE000D004C9213E
:10C28E0090DEC908F0CEC97FF0CAE047B00B951416
:10C29E00E82028C9D0CA4CC5C8A907D0F4A0FFA26F
:10C2AE00008660865C38A5C3E914AAB514F05AC995
:10C2BE005FB056C93CB018C930B04E855CC922F08B
:10C2CE006BC92A9044D008A90024601055A92A24CD
:10C2DE00607036867884BAA0688473A0E38474A0F4
:10C2EE0000D173F0059020C8D0F7980AAABD86E356
:10C2FE008573BD87E38574A0FFA678C8B173300738
:10C30E00E8D514F0F6D02CA4BAE8C8991400C900E8
:10C31E00F032E93AF006C949F002A9808560495722
:10C32E00D089855CB514F0E1C55CF0DDC8991400C8
:10C33E00E8D0F1A678B17308C82810F9B173D0BE51
:10C34E00B51410C3C8C8991400C8C8C8C6C360A520
:10C35E0079A67AA00185AA86ABB1AAF01AA003B17C
:10C36E00AA88C512D004B1AAC511B00988B1AAAA6B
:10C37E0088B1AA90DEF0011860D0FDA900A89179CD
:10C38E00C8917918A5796902857BA57A6900857CA3
:10C39E0018A57969FF85C3A57A69FF85C4A585A40B
:10C3AE008685818482A57BA47C857D847E857F8421
:10C3BE00802077C5A268866568AA688EFE018DFF0B
:10C3CE0001A2FD9AA900856160F0D2609006F0048A
:10C3DE00C9B7D0F4208DC7205EC320C200F00CC9AF
:10C3EE00B7D09520BC00208DC7D08DA5110512D0D9
:10C3FE0006A9FF85118512A001846020CDC8B1AABF
:10C40E00F03E204DC5C8B1AAAAC8B1AAC512D00423
:10C41E00E411F002B02A849720CFDAA920A497293C
:10C42E007F2028C9C922D006A56049FF8560C8B102
:10C43E00AAD00EA8B1AAAAC8B1AA86AA85ABD0B7AF
:10C44E006010DE246030DAA2E50A0A9002E818696C
:10C45E00699001E8857386748497A000B173AAC8A9
:10C46E00B173CAF0B82028C9C8B17348C8B173A057
:10C47E00008574688573B173CAF0A22028C9C8D02C
:10C48E00F5A980856120ECC76868A9102010C1202D
:10C49E00D2C6189865C348A5C4690048A58848A5A2
:10C4AE008748A9AD2024CC2003CB2000CB2026D951
:10C4BE00A5B0097F25AD85ADA9D2A0C485718472C2
:10C4CE004CBACBA938A0E220CAD820C200C9B2D03B
:10C4DE000620BC002000CB2036D985B020ACCBA5E1
:10C4EE009848A59748A98148204DC5A5C3A4C4A6C0
:10C4FE0088E8858B848CA000B1C3F007C93AF01D83
:10C50E004C35CCA002B1C318F050C8B1C38587C852
:10C51E00B1C385889865C385C39002E6C420BC006C
:10C52E002035C54CF7C4F04E0AB0034CECC7C956C3
:10C53E00B0CEA8B960E248B95FE2484CBC006C04CA
:10C54E0002C903B00118D061A5C4A4C3848B858C25
:10C55E00A587A4888589848A68689007A95FA0E862
:10C56E004C5FC14C6AC1D00F38A579E901A47AB0ED
:10C57E000188858F849060208DC720D5C6A588C57B
:10C58E0012B00B983865C3A6C49007E8B004A5791D
:10C59E00A67A2062C3B0034CA7C6A5AAE901A4AB34
:10C5AE00B0D090CD20D0D4860D60D0FDA48CC0002C
:10C5BE00D005A21E4C4CC1A9932067DFA993206A17
:10C5CE00DF84C4A58B85C3A589A48A8587848860EA
:10C5DE00D0034C9FC320ACC3F02EA9052010C1A5DB
:10C5EE00C448A5C348A58848A58748A99D4820C228
:10C5FE00004CF7C4A9052010C1A5C448A5C348A581
:10C60E008848A58748A98D4820C2002020C64CF72F
:10C61E00C4208DC720D5C6A588C512B00B98386525
:10C62E00C3A6C49007E8B004A579A67A2062C39089
:10C63E0067A5AAE90185C3A5ABE90085C460A2225E
:10C64E004C4CC1A8BABD0301C99DD0F2E8E89A9836
:10C65E00F020C93AF01CE9B3AAF004CAD062CA8627
:10C66E009820BC002014CBA5ACF002A9FFBA4598C7
:10C67E00D01ABD02018587BD03018588BD040185E1
:10C68E00C3BD050185C420C2004CF7C4E8E8E8E844
:10C69E00E89A4CC1C6A2042CA20E4C4CC1D09E6886
:10C6AE006868C98DD0EF6885876885886885C36896
:10C6BE0085C420D2C6981865C385C39002E6C460AF
:10C6CE004C35CCA23A2CA200A000845C8A455C8535
:10C6DE005CB1C3F0EAC55CF0E6C8C922D0F3F0EC59
:10C6EE002014CB20C200C9B0F011C989D0D2A6C384
:10C6FE00A4C420BC00B0C986C384C4A5ACF01E205F
:10C70E00BC00B0034C20C6686820C2002035C5A00E
:10C71E0000B1C3C9ACD00320C1C64CF7C4A000A25F
:10C72E0001C8B1C3F00FC98BD003E8D0F4C9ACD0A7
:10C73E00F0CAD0EDC8981865C385C39002E6C42030
:10C74E00C20090C04C35C520D5C64CC4C64C35CCA5
:10C75E00C9A9D0034C8BDFC9AAD0034C8FDF20D0E0
:10C76E00D448C98DF004C989D0E3C6AFD004684C53
:10C77E0037C520BC00208DC7C92CF0EE6860A20022
:10C78E0086118612B0F7E019A8B0DDE92FA8A51121
:10C79E000A26120A2612651185118A651206112AB9
:10C7AE00AA98651185119001E820BC004C91C7A98B
:10C7BE003C2CA9384820EBCDA65F301E8597849877
:10C7CE0020CAD86848A0E2200BD620F0D820C2009C
:10C7DE00C92CD0A820BC004CC4C74C0FCB20EBCD2D
:10C7EE0085978498A9C12024CCA55F482014CB68D6
:10C7FE002A2006CBB0034CF0D8A002B1AEC900F08F
:10C80E0022C5829017D00788B1AEC581900EA4AF15
:10C81E00C47C9008D00DA5AEC57BB007A5AEA4AF65
:10C82E004C48C8A000B1AE2070D1A59EA49F85B87B
:10C83E0084B92055D3A9ACA000859E849F20B7D380
:10C84E00A000B19E9197C8B19E9197C8B19E919745
:10C85E006020EBCD859784982053DFA65F3007A824
:10C86E0020A8D04CF0D848A901B001682078D1F0AA
:10C87E000568A00091AD20C5D14C08C82011C92073
:10C88E00C200F03AC9ABF055C9AFF051C92CF03720
:10C89E00C93BF0652014CB245F30E120E2DA208220
:10C8AE00D1A000A50FF00A38E50EF1AEB00320CDF1
:10C8BE00C82011C9F0C9A9009514A214A000A90D91
:10C8CE002028C9A90AD052A50EC510900520CDC8A2
:10C8DE00D02738E564B0FC49FF6901D0124820CD5D
:10C8EE00D4C929D07B68C9ABD0068AE50E900AAAB6
:10C8FE008AF0062023C9CAD0FA20BC00D086602058
:10C90E0082D12082D3A000AAF049B1712028C9C8D3
:10C91E00CAD0F760A9202CA93FC920901948A50FAD
:10C92E00D00AA50EE564D00B850EF007C50ED00318
:10C93E0020CDC8E60E682040E1C90DD0148678A639
:10C94E000DF00AA9002028C9CAD0FAA90D860EA694
:10C95E007829FF60A562100BA58DA48E858784882B
:10C96E004C35CCA993A0E8200EC9A58BA48C85C309
:10C97E0084C460C922D00E20F1CBA93B2024CC2048
:10C98E0011C94C9AC92026C92023C920ACD0206DCC
:10C99E00C2A900F006A68FA490A980856286918414
:10C9AE009220EBCD85978498A5C3A4C485118412DB
:10C9BE00A691A49286C384C420C200D007246230FC
:10C9CE005B20C200245F1024855BC922F007A93AC0
:10C9DE00855BA92C18855CA5C3A4C469009001C809
:10C9EE002088D1200CD52008C84C01CA20F3D920AC
:10C9FE00F0D820C200F00AC92CF0034C63C920BC49
:10CA0E0000A5C3A4C485918492A511A41285C384E4
:10CA1E00C420C200F02C2031CC4CB0C920D2C6C8E4
:10CA2E00AAD012A206C8B1C3F073C8B1C3858DC80F
:10CA3E00B1C3C8858EB1C3C8AA20C4C6E083F08135
:10CA4E00D0DAA591A492A66210034C81C5A000B1C4
:10CA5E0091D00160A982A0E84C0EC9BAE8E8E8E8D6
:10CA6E00BD0101C981D021A598D00ABD02018597CB
:10CA7E00BD03018598DD0301D007A597DD0201F006
:10CA8E00078A186910AAD0D860D004A000F003203D
:10CA9E00EBCD85978498206ACAF004A200F0639AC1
:10CAAE008A38E9F7857369FBA00120CAD8BABD0898
:10CABE000185B0A597A498200BD620F0D8A0012010
:10CACE0066D9BADD0801F017BD0D018587BD0E01CF
:10CADE008588BD100185C3BD0F0185C44CF7C48A7E
:10CAEE00690FAA9A20C200C92CD0F120BC00209E4A
:10CAFE00CA2014CB182438245F3003B00360B0FD75
:10CB0E00A2184C4CC1A6C3D002C6C4C6C3A90048C5
:10CB1E00A9022010C12000CCA900859B20C200389C
:10CB2E00E9C09017C903B013C9012A4901459BC535
:10CB3E009B9067859B20BC004C2ECBA69BD02CB027
:10CB4E0079690A9075D007245F10034C18D385714C
:10CB5E000A6571A868D941E3B0652003CB482095DA
:10CB6E00CB68A4991019AAF076D05D265F8A855FEE
:10CB7E002AA6C3D002C6C4C6C3A024859BD0D5D9CD
:10CB8E0041E3B04490D7B943E348B942E34820ACFF
:10CB9E00CBA59B48B941E34C1ECB4C35CC68857177
:10CBAE00E671688572A5B0482026D9A5AF48A5AE16
:10CBBE0048A5AD48A5AC486C7100A0FF68F020C92F
:10CBCE0064F0032003CB8499684A85636885B36853
:10CBDE0085B46885B56885B66885B745B085B8A54E
:10CBEE00AC60A5C3A4C469009001C82082D14C0CCE
:10CBFE00D520BC00B0034CF3D9AA302FC924F0F6CF
:10CC0E00C925F0F2C92EF0EEC922F0D6C928D05BA4
:10CC1E00201CCBA929A000D1C3D00B4CBC00A92845
:10CC2E00D0F3A92CD0EFA2024C4CC1C9B7F029C940
:10CC3E00B6F0BEC9B1D013A021D01F20E7CEA5AF4C
:10CC4E0049FFA8A5AE49FF4C9AD0C9AED0034CF609
:10CC5E00D0E9C3B0274C35CCA01E68AA68E020D01E
:10CC6E0004C9D3F0034C6DCB4C0FCB20EBCD85AE6E
:10CC7E0084AFA65F30034CCAD846B9600AA8B9FC87
:10CC8E00E248B9FBE248B9B6E2F00548B9B5E24868
:10CC9E0060201FCC4C05CB201FCC4C03CB465F4CE9
:10CCAE00BC00201CCB2031CC2005CB68AA68A8A5DF
:10CCBE00AF48A5AE4898488A4820D0D48A60201C38
:10CCCE00CB2003CBA5ACC998B020209DD9A202B52C
:10CCDE00AD9511CA10F920C200A200C929F00A2090
:10CCEE001BD520C200C929D001604C6ACF2023CDAC
:10CCFE00455BA8A5AE455C4C9AD02023CD055BA81C
:10CD0E00A5AE055C4C9AD02023CD255BA8A5AE25FB
:10CD1E005C4C9AD020E7CEA5AE855CA5AF855B2096
:10CD2E0010D620E7CEA5AF602006CBB013A5B7096D
:10CD3E007F25B485B4A9B3A0002064D9AA4C80CDB8
:10CD4E00465FC69B2082D385AC86AD84AEA5B5A4C6
:10CD5E00B62086D386B584B6AA38E5ACF008A9010C
:10CD6E009004A6ACA9FF85B0A0FFE8C8CAD007A65C
:10CD7E00B0300F18900CB1B5D1ADF0EFA2FFB002EC
:10CD8E00A201E88A2A2563F002A9FF4C47D9203177
:10CD9E00CCAA20F0CD20C200D0F46020E0CDA5AE0C
:10CDAE00A678F022E010B02306AF2ACAD0FAA4AFBC
:10CDBE004C9AD020E0CDA5AEA678F00AE010B00BCC
:10CDCE004A66AFCAD0FAA4AF4C9AD0A900A84C9A22
:10CDDE00D020D3D486782010D64CE7CEA20020C225
:10CDEE0000865E8593297F205FCEB0034C35CCA2A2
:10CDFE0000865F20BC009005205FCE900BAA20BC61
:10CE0E000090FB205FCEB0F6C924D00BA9FF855F42
:10CE1E008A0980AA20BC0086940561C928D0034CDB
:10CE2E00F9CEA9008561A57BA67CA00086AB85AA5C
:10CE3E00E47ED004C57DF02CA593D1AAD008A5948C
:10CE4E00C8D1AAF0698818A5AA690690E1E8D0DCD5
:10CE5E00C961B00AC9419005E95B38E9A560E97B73
:10CE6E0038E985606848C97CD005A2244C4CC1A520
:10CE7E007DA47E85AA84ABA57FA48085A684A718F1
:10CE8E0069069001C885A484A520CEC0A5A4A4A53A
:10CE9E00C8857D847EA000A59391AAC8A59491AA69
:10CEAE00A900C891AAC891AAC891AAC891AAA5AA70
:10CEBE00186902A4AB9001C88595849660A55D0A99
:10CECE00690565AAA4AB9001C885A484A56020BCA1
:10CEDE00002000CBA5B0300DA5ACC9909009A9409B
:10CEEE00A0E22064D9D0744C9DD9A55E48A55F48B8
:10CEFE00A0009848A59448A5934820DDCE68859358
:10CF0E0068859468A8BABD020148BD010148A5AE66
:10CF1E009D0201A5AF9D0101C820C200C92CF0D20F
:10CF2E00845D2022CC68855F68855EA67DA57E86A1
:10CF3E00AA85ABC580D004E47FF039A000B1AAC8A1
:10CF4E00C593D006A594D1AAF016C8B1AA1865AAA1
:10CF5E00AAC8B1AA65AB90D7A2102CA2084C4CC19E
:10CF6E00A212A55ED0F720CCCEA55DA004D1AAD08A
:10CF7E00E74C06D020CCCE201BC1A00084BBA593CD
:10CF8E0091AAC8A59491AAA55DA00484BA91AA18E5
:10CF9E00A20BA900245E5007686901AA686900C83F
:10CFAE0091AAC88A91AA2055D086BA85BBA471C60B
:10CFBE005DD0DD65A5B05D85A5A88A65A49003C882
:10CFCE00F052201BC1857F8480A900E6BBA4BAF075
:10CFDE00058891A4D0FBC6A5C6BBD0F5E6A538A0A2
:10CFEE0002A57FE5AA91AAC8A580E5AB91AAA55E88
:10CFFE00D053C8B1AA855DA90085BA85BBC868AAF9
:10D00E0085AE6885AFD1AA900ED006C88AD1AA90F7
:10D01E00074C67CF4C4AC1C8A5BB05BAF00A2055CC
:10D02E00D08A65AEAA98A47165AF86BAC65DD0CB1C
:10D03E0006BA2A06BA2AA8A5BA65A485959865A542
:10D04E008596A8A595608471B1AA857688B1AA85C2
:10D05E0077A91085A8A200A0008A0AAA982AA8B0CB
:10D06E00B306BA26BB900B188A6576AA986577A880
:10D07E00B0A2C6A8D0E360A55F10032082D3201F04
:10D08E00D238A581E57FA8A582E580465F85AD846F
:10D09E00AEA290384C54D9A40EA900F0EEA688E8A2
:10D0AE00D0A3A2164C4CC120E7D0859C849D20AC09
:10D0BE00D0202DCCA980856120EBCD2003CB202262
:10D0CE00CCA9C12024CCA59648A59548A5C448A5B1
:10D0DE00C34820C1C64C56D1A9AE2024CC098085A8
:10D0EE006120F2CD4C03CB20E7D0489848202DCCC0
:10D0FE002014CB2022CC2003CB68859D68859CA272
:10D10E0020A003B19CF09D859688B19C8595AAC8F8
:10D11E00B195488810FAA49620F4D8A5C448A5C3A2
:10D12E0048B19C85C3C8B19C85C4A59648A59548B1
:10D13E002000CB68859C68859D20C200F0034C358D
:10D14E00CC6885C36885C4A00068919CC868919C12
:10D15E00C868919CC868919C602003CB20E2DAF0ED
:10D16E0012A6AEA4AF869E849F20EDD186AD84AE6E
:10D17E0085AC60A222865B865C85B884B985AD8459
:10D18E00AEA0FFC8B1B8F00CC55BF004C55CD0F31F
:10D19E00C922F0011884AC9865B885BAA6B9900179
:10D1AE00E886BBA5B9F004C900D00B982070D1A6B3
:10D1BE00B8A4B92063D3A665E071D005A21C4C4C6F
:10D1CE00C1A5AC9500A5AD9501A5AE9502A00086B2
:10D1DE00AE84AF88845F8666E8E8E8866560466060
:10D1EE004849FF386581A482B00188C4809011D06F
:10D1FE0004C57F900B8581848285838484AA6860B0
:10D20E00A20CA56030B8201FD2A980856068D0D04E
:10D21E00A685A58686818582A000849D849CA57F97
:10D22E00A68085AA86ABA96885718472C565F0054E
:10D23E0020A5D2F0F706A0A57BA67C85718672E4A8
:10D24E007ED004C57DF005209FD2F0F385A486A57F
:10D25E00A90485A0A5A4A6A5E480D004C57FF07579
:10D26E0085718672A002B17165A485A4C8B171657D
:10D27E00A585A5A001B17110DBA004B1710A6905E5
:10D28E0020D7D2E4A5D004C5A4F0CD20A5D2F0F3CA
:10D29E00C8B1711030C8B171F02BC8B171AAC8B144
:10D2AE0071C5829006D01EE481B01AC5AB9017D01E
:10D2BE0004E4AA901186AA85ABA571A672859C86F8
:10D2CE009D888884A218A5A0657185719002E6726A
:10D2DE00A672A00060C6A0A59D059CF0F3A4A2189E
:10D2EE00B19C65AA85A6A5AB690085A7A581A68276
:10D2FE0085A486A520D5C0A4A2C8A5A4919CAAE603
:10D30E00A5A5A5C8919C4C23D2A5AF48A5AE482093
:10D31E0000CC2005CB6885B86885B9A000B1B818D7
:10D32E0071AE9005A21A4C4CC12070D12055D3A5D8
:10D33E009EA49F2086D32067D3A5B8A4B92086D3F8
:10D34E0020C5D14C2BCBA000B1B848C8B1B8AAC8E3
:10D35E00B1B8A86886718472AAF014A000B1719158
:10D36E0083C8CAD0F89818658385839002E68460D6
:10D37E002005CBA5AEA4AF8571847220B7D308A0CB
:10D38E0000B17148C8B171AAC8B171A86828D0138C
:10D39E00C482D00FE481D00B48186581858190023C
:10D3AE00E682688671847260C467D00CC566D00848
:10D3BE008565E9038566A0006020D3D48A48A9015B
:10D3CE002078D168A00091AD4CC5D148203BD4D176
:10D3DE009E98F00948203BD418F19E49FF9004B165
:10D3EE009EAA98488A482078D1A59EA49F2086D3CD
:10D3FE0068A86818657185719002E672982067D3E7
:10D40E004CC5D148A9FF85AF20C200C929F006201E
:10D41E0031CC20D0D4203BD4CA8A4818A200F19E29
:10D42E00B0C249FFC5AF90BDA5AFB0B92022CC6840
:10D43E0085A26885A368AA68859E68859FA0008AD4
:10D44E00F079E6A26CA200207FD385ACA8F038203C
:10D45E0078D186AD84AEA888B1712063CE900209D2
:10D46E0020918398D0F1F01F207FD385ACA8F017C0
:10D47E002078D186AD84AEA888B171205FCE90029F
:10D48E0029DF918398D0F14CC5D120BC0020EBCD83
:10D49E002022CC2005CBA002B195AA88B195A88AEE
:10D4AE004C9AD020B8D44CA8D0207FD3A86020B8F6
:10D4BE00D4F008A000B171A84CA8D04C6ACF20BC03
:10D4CE00002000CB20E3CEA4AED0F0A6AF4CC2001D
:10D4DE0020B8D4D0034C9DD648C8982078D1682067
:10D4EE0067D3A900A89183A6C3A4C486BA84BBA699
:10D4FE00ADA4AE86C384C420C20020F3D9A6BAA4BC
:10D50E00BB86C384C4602000CB202ED52031CCA591
:10D51E001248A5114820D0D468851168851260A5DF
:10D52E00ACC998B096209DD9A5AEA4AF8411851232
:10D53E0060202ED5A200A111A84CA8D02015D58A06
:10D54E00A200811160202ED5A200A111A8E611D053
:10D55E0002E612A1114C9AD02000CB202ED5849732
:10D56E0085982031CC2000CB202ED598A200819713
:10D57E00E697D002E698A51281974CC20020EBCD1B
:10D58E0085978498A55F482031CC20EBCD68455F08
:10D59E001010A003B197AAB19591978A9195881012
:10D5AE00F3604C0FCB2000CB20BDD54CC200A9D5CB
:10D5BE0048A9CE48202ED5A507A608A4096C1100AF
:10D5CE00850786088409602015D58697A20020C29B
:10D5DE0000F003201BD58698B11145982597F0F8D9
:10D5EE006020D8D7A5B049FF85B045B785B8A5ACA2
:10D5FE004C0ED62027D7904DA941A0E220D8D7D0E7
:10D60E0010A5B785B0A204B5B295ABCAD0F986B94C
:10D61E0060A6B986A3A2B3A5B3A8F0C438E5ACF052
:10D62E0024901284ACA4B784B049FF6900A0008492
:10D63E00A3A2ACD004A00084B9C9F930B6A8A5B98C
:10D64E005601203ED724B8104CA0ACE0B3F002A097
:10D65E00B33849FF65A385B9B90300F50385AFB9A2
:10D66E000200F50285AEB90100F50185ADB00320CB
:10D67E00E3D6A0009818A6ADD03EA6AE86ADA6AF56
:10D68E0086AEA6B986AF84B96908C918D0E8A900D4
:10D69E0085AC85B06065A385B9A5AF65B685AFA528
:10D6AE00AE65B585AEA5AD65B485ADB01A60690140
:10D6BE0006B926AF26AE26AD10F438E5ACB0CF498C
:10D6CE00FF690185AC900CE6ACF03666AD66AE66D1
:10D6DE00AF66B960A5B049FF85B0A5AD49FF85AD70
:10D6EE00A5AE49FF85AEA5AF49FF85AFA5B949FFE8
:10D6FE0085B9E6B9D00AE6AFD006E6AED002E6AD01
:10D70E0060A20A4C4CC1A274B40384B9B40294034F
:10D71E00B4019402A4B29401690830ECF0EAE9086D
:10D72E00A8A5B9B01216019002F60176017601761F
:10D73E000276036AC8D0EE18602036D9F0021003C4
:10D74E004C6ACFA5ACE97F48A98085ACA9C1A0E100
:10D75E00200BD6A9C5A0E1204ED8A938A0E220F012
:10D76E00D5A9B4A0E1209FDCA9C9A0E1200BD66801
:10D77E002092DAA9CDA0E120D8D7F04C20FED7A96F
:10D78E0000857585768577A5B920ADD7A5AF20AD77
:10D79E00D7A5AE20ADD7A5AD20B3D74CBBD8D004FE
:10D7AE00384C15D7386AA8901318A57765B68577C3
:10D7BE00A57665B58576A57565B485756675667647
:10D7CE00667766B9984AD0DE6085718472A003B11F
:10D7DE007185B688B17185B588B17185B745B0854B
:10D7EE00B8A5B7098085B488B17185B3A5AC60A51D
:10D7FE00B3F01D1865AC90043031182C10126980EE
:10D80E0085ACD0034CA1D6A5B885B060A5B0101BD1
:10D81E0068684C9DD62017D9AAF0F0186902B00B93
:10D82E00A20086B82028D6E6ACD0E04C10D7201740
:10D83E00D9A949A0E2A20086B820CAD84C51D82056
:10D84E00D8D7F0632026D9A90038E5AC85AC20FEE8
:10D85E00D7E6ACF0D6A2FFA901A4B4C4ADD00AA4F9
:10D86E00B5C4AED004A4B6C4AF082A900EA001E889
:10D87E00E0023004D028A040957598289014A8A5F1
:10D88E00B6E5AF85B6A5B5E5AE85B5A5B4E5AD856E
:10D89E00B49806B626B526B4B0CF30BD10CB4A6AC2
:10D8AE006A85B9284CBBD8A2144C4CC1A57585AD60
:10D8BE00A57685AEA57785AF4C81D685718472A08D
:10D8CE0003B17185AF88B17185AE88B17185B0092C
:10D8DE008085AD88B17185AC84B960A2A4A000F03A
:10D8EE0004A697A4982026D986718472A003A5AFAA
:10D8FE00917188A5AE917188A5B0097F25AD917102
:10D90E0088A5AC917184B9602026D9A205B5AB95D6
:10D91E00B2CAD0F986B960A5ACF0FB06B990F72073
:10D92E0005D7D0F24CD6D6A5ACF009A5B02AA9FFE2
:10D93E00B002A901602036D985ADA90085AEA288B6
:10D94E00A5AD49FF2AA90085AF86AC85B985B04C37
:10D95E007CD646B06085738474A000B173C8AAF0FB
:10D96E00C6B17345B030C4E4ACD01AB1730980C5EA
:10D97E00ADD012C8B173C5AED00BC8A97FC5B9B1B1
:10D98E0073E5AFF028A5B0900249FF4C3CD9A5AC89
:10D99E00F04A38E99824B01009AAA9FF85B220E907
:10D9AE00D68AA2ACC9F910062027D784B260A8A5E2
:10D9BE00B0298046AD05AD85AD203ED784B260A5B9
:10D9CE00ACC998B01E209DD984B9A5B084B0498049
:10D9DE002AA99885ACA5AF855B4C7CD685AD85AE66
:10D9EE0085AFA860A000845FA20994A8CA10FB901E
:10D9FE007FC92DD00486B1F004C92BD00520BC0000
:10DA0E00906EC924D0034CC1DEC925D0084CEFDE80
:10DA1E0020BC00905BC92EF02EC945D03020BC0032
:10DA2E009017C9B7F00EC92DF00AC9B6F008C92B68
:10DA3E00F004D00766AB20BC00905B24AB100EA99F
:10DA4E000038E5A94C5EDA66AA24AA50C3A5A93807
:10DA5E00E5A885A9F0121009203DD8E6A9D0F9F065
:10DA6E00072024D8C6A9D0F9A5B13001604C42DCFC
:10DA7E004824AA1002E6A82024D868290F2092DA9A
:10DA8E004C1FDA482017D9682047D9A5B745B0856D
:10DA9E00B8A6AC4C0ED6A5A9C90A9009A96424ABA8
:10DAAE00300E4C10D70A0A65A90AA00071C3E92FDF
:10DABE0085A94C45DAA96EA0E8200EC9A588A687CF
:10DACE0085AD86AEA290382054D9A0009820F0DA09
:10DADE004C0EC9A000A92024B01006A92DC899EE9D
:10DAEE000085B084BAA6ACD006C8A9304CFCDBA920
:10DAFE0000E081B009A9D9A0E12086D7A9FA85A8AE
:10DB0E00A9D5A0E12064D9F01E1012A9D1A0E12060
:10DB1E0064D9F002100E2024D8C6A8D0EE203DD82D
:10DB2E00E6A8D0DC2007D6209DD9A201A5A81869A9
:10DB3E00073009C908B00669FFAAA90238E90285AB
:10DB4E00A986A88AF0021013A4BAA92EC899EE00CD
:10DB5E008AF006A930C899EE0084BAA000A280A56A
:10DB6E00AF18794FE285AFA5AE794EE285AEA5AD81
:10DB7E00794DE285ADE8B00410E5300230E18A90CF
:10DB8E000449FF690A692FC8C8C88495A4BAC8AAEF
:10DB9E00297F99EE00C6A8D006A92EC899EE00845A
:10DBAE00BAA4958A49FF2980AAC012D0B2A4BAB9E4
:10DBBE00EE0088C930F0F8C92EF001C8A92BA6A92D
:10DBCE00F02E1008A90038E5A9AAA92D99F000A9F0
:10DBDE004599EF008AA22F38E8E90AB0FB693A9915
:10DBEE00F2008A99F100A90099F300F00899EE006D
:10DBFE00A90099EF00A9EFA00060F042A5B3D003F1
:10DC0E004C9FD6A29CA00020F4D8A5B7100F20CE12
:10DC1E00D9A99CA0002064D9D00398A45B2012D669
:10DC2E0098482048D7A99CA0002086D7204DDC68B4
:10DC3E004A900AA5ACF006A5B049FF85B060A9DDF3
:10DC4E00A0E12086D7A5B969509003202ED985A3CF
:10DC5E00201AD9A5ACC9889003201BD820CED9A5EF
:10DC6E005B186981F0F338E90148A204B5B3B4AC8E
:10DC7E0095AC94B3CA10F5A5A385B920F3D520426F
:10DC8E00DCA9E1A0E120B5DCA90085B8684C00D87C
:10DC9E0085BA84BB20EAD8A9A42086D720B9DCA9EE
:10DCAE00A4A0004C86D785BA84BBA2A820ECD8B11C
:10DCBE00BA85B1A4BAC898D002E6BB85BAA4BB2077
:10DCCE0086D7A5BAA4BB1869049001C885BA84BBCF
:10DCDE00200BD6A9A8A000C6B1D0E460A5ACF00771
:10DCEE00A2D8A00020F4D8A2AFA01306D926DA2617
:10DCFE00DB26D890058A45D985D988D0EEA202B503
:10DD0E00D995ADCA10F9A98085AC0A85B04C81D6DB
:10DD1E00A9FEA0E1200BD62017D9A913A0E2A6B721
:10DD2E002046D82017D920CED9A90085B820F3D502
:10DD3E00A945A0E220F0D5A5B048100D2007D6A524
:10DD4E00B03009A56349FF85632042DCA945A0E2F6
:10DD5E00200BD66810032042DCA902A0E24C9FDC07
:10DD6E0020EAD8A90085632026DDA29CA00020F41D
:10DD7E00D8A9A4A00020CAD8A90085B0A563209771
:10DD8E00DDA99CA0004C4ED8484C58DD200A00203E
:10DD9E0047D54C22CCA5B04810032042DCA5AC4898
:10DDAE00C9819007A938A0E2204ED8A917A0E22079
:10DDBE009FDC68C9819007A9FEA0E120F0D568100C
:10DDCE00164C42DC2015D5E008B020A900382ACA2E
:10DDDE0010FCE801118111602015D5E008B00CA9E6
:10DDEE00FF2ACA10FCE821118111604C6ACF20BCB9
:10DDFE00002015D5E008B0F320C200C929F0034C6D
:10DE0E0035CC20BC00A900382ACA10FCE82111F03C
:10DE1E0002A9FF4C47D9E019B0488678A918207896
:10DE2E00D1A017A2184611661266138A2A91AD88E0
:10DE3E0010F3A578F00AAA3849FF6918F01CD00F24
:10DE4E00A8B1ADC930D007CAF003C810F4E89818CD
:10DE5E0065AD85ADA90065AE85AE86AC20BC004C27
:10DE6E00C5D14C6ACFE007B0F98678A9062078D1E3
:10DE7E00A005A51320A0DEA51220A0DEA51120A0CE
:10DE8E00DEA206A578F0B9AA3849FF6906F0CBD014
:10DE9E00BEAA290F20ABDE8A4A4A4A4AC90A900214
:10DEAE006906693091AD886085ACA90085B88A2075
:10DEBE0092DA20BC00900A0920E961C906B02A69ED
:10DECE000A290FAAA5ACF0E4690490DC4C10D7AA7D
:10DEDE00A5ACF006E6ACF0F4A90085B88A2092DA7B
:10DEEE0020BC004930C90290E64C77DAAD0002D072
:10DEFE0018203DE1900B8D0102A2208E02024C50A3
:10DF0E00C5AE0202F003CE0202A2DC2023DFA2DFA6
:10DF1E002023DF60B50010FB0A2940F0F695008A39
:10DF2E00A86868A9052010C1A5C448A5C348A5883E
:10DF3E0048A58748A98D48B9010085C3B902008557
:10DF4E00C44CF7C4203DE1B009AD0202F009AD01A9
:10DF5E000238A2008E020260A2DF2CA2DCC993F06E
:10DF6E0011C9B5F00749A2F00E4C35CCA97F35008A
:10DF7E001005B5000A150095004CBC0058A2DF2C08
:10DF8E00A2DC867820BC00208DC7A579A67A2062F7
:10DF9E00C3B0034CA7C6A678A5AAE9019501A5AB07
:10DFAE00E9009502A9C0950060D0FDA5DF0A05DF46
:10DFBE0085DF4CAEC6D0F1A5DC0A05DC85DC4CAEA7
:10DFCE00C6201CCB4C03CB2004E010FBA5B409806B
:10DFDE0085B42010D6F0F02004E030FBF0F9A5B4A3
:10DFEE00098085B42010D6F0EEC929D00568684C9A
:10DFFE00BC004C35CC20C200C92CD0ED2026D9A5B2
:10E00E00B0097F25AD48A5AE48A5AF48A5AC4820C0
:10E01E00BC002000CB6885B36885B66885B5688579
:10E02E00B485B7A9B3A0004C64D9C92CF01B20D07D
:10E03E00D48AF00AE0109045E464B0028664860F3C
:10E04E0020C200F01AC92CD0A920CDD48A302EE0DF
:10E05E0001902AA50FF006E40FF002B0208664A509
:10E06E000FF006C564B003856438E564B0FC6564E2
:10E07E001865648510A50F38E5108510604C6ACFC1
:10E08E00A5B030F9A5ACF0F42017D9A90085778595
:10E09E00768575857885AF85AE85ADA218A5B34A10
:10E0AE00B00E06B626B526B42677267626752678C1
:10E0BE0006B626B526B4267726762675267806AFBA
:10E0CE0026AE26ADA5AF2A855BA5AE2A855CA5AD8D
:10E0DE002A855DA9002A855EA577E55B855BA57619
:10E0EE00E55C855CA575E55DA8A578E55E900E8579
:10E0FE00788475A55C8576A55B8577E6AFCAD0A2D8
:10E10E0038A5B3E9806A690085AC4C81D620BC0085
:10E11E0020EBCD2022CCA495A5964C9AD0A913A085
:10E12E00E220CAD8C6AC60A913A0E24CCAD86C06CD
:10E13E00026C08026C0A026C0C0200000000FBDE8E
:10E14E00E6C3D002E6C4ADFFFFC9ACF00EC93AB0CB
:10E15E000AC920F0EB38E93038E9D0604C03C04CE6
:10E16E0003C0000000004CBDD5000000F200030DFE
:10E17E000A4D656D6F72792073697A652000456E60
:10E18E0068616E63656420424153494320322E32EA
:10E19E00327035610D0A0020427974657320667203
:10E1AE0065650D0A000280195662807622F3823868
:10E1BE00AA40803504F3813504F38080000080315D
:10E1CE00721891434FF8947423F794742400813895
:10E1DE00AA3B067463908C77230CAB7A1E94007C5A
:10E1EE006342807E75FED080317215810000008101
:10E1FE00490FDB04861ED7FB879926658723345883
:10E20E0086A55DE183490FDB08783AC5377B83A28B
:10E21E005C7C2EDD4D7D99B01E7D59ED247E917274
:10E22E00007E4CB9737FAAAA538100000081800042
:10E23E000090800000007F00000084200000FE7926
:10E24E0060002710FFFC18000064FFFFF6000001BD
:10E25E0053C58FC497CAC0C681C99FCDA3C9EBC78A
:10E26E00BDC71FC6DEC5EEC674C502C6B7DFC3DFA7
:10E27E00ABC655C751C55EC7B2C5C0C7D5D542E1FD
:10E28E0045E1B5D04AD566D5B3D5E8C551C690C8D7
:10E29E00B8C5DAC3D7C387C338E05FC88BD5D2DD24
:10E2AE00E6DD66DF69DFA5CCA5CCA5CC1BCB1ECCED
:10E2BE001ECCA5CCA5CCA5CCA5CCA5CCA5CCA5CC4F
:10E2CE00A5CCA5CCA5CC00009FCCA5CC9FCC9FCC3B
:10E2DE009FCC9FCCA5CCCCCCCCCC0000CFDFCFDF5D
:10E2EE00ABCCABCC0000B0CCB0CCB0CC43D9CDD9FC
:10E2FE0060D99ADD85D0A5D08EE0EADC47D74CDC1C
:10E30E001EDD25DD6EDDA3DD3FD553D598D4B1D40A
:10E31E0067D1DED4BCD476D455D4C7D373DE24DE15
:10E32E00FCDDD5DFE5DF2BE135E11BE1D9D3E2D30F
:10E33E0011D4790DD679F2D57B88D77B50D87F084A
:10E34E00DC5015CD46FBCC4608CD56C1CD56A9CDD9
:10E35E007D41DC5A49CC6436CD2A2B2D2F3C3D3ED7
:10E36E003F4142434445464748494C4D4E4F50521B
:10E37E0053545556575E00C0E3C2E3C4E3C6E3C828
:10E38E00E3CCE3CEE3D2E3D4E3E4E3FDE314E42D04
:10E39E00E43CE446E453E459E46BE490E49EE4B0D8
:10E3AE00E4B8E4CDE4FCE427E53BE54CE558E5674D
:10E3BE00E5B800B600B700B9003CBFC200C1003ED0
:10E3CE00BEC0009F00425328C54E44BB534328D7BE
:10E3DE00544E28D000494E2428DC4954434C52A8B0
:10E3EE004954534554A7495454535428DD00414CC5
:10E3FE004C9C48522428DA4C454152A24F4E54A010
:10E40E004F5328CD004154418345438845454B2801
:10E41E00D2454699494D854F4B459B4F9D004C53D8
:10E42E0045AC4E44804F52BC585028CC004EAE4F97
:10E43E005281524528C7004554A54F5355428D4F22
:10E44E00544F890045582428DB00468B4E43954E89
:10E45E00505554844E5428C45251A900434153453B
:10E46E002428D94546542428E3454E28D4455487BC
:10E47E00495354A14F4144974F4728CB4F4F509E7D
:10E48E0000415828DE49442428E5494E28DF00453E
:10E49E0057A3455854824D49AA4F54B1554C4C94EC
:10E4AE00004646B54E9352BD0045454B28D149E036
:10E4BE004F4B459A4F5328C852494E549F004541E1
:10E4CE004486454D914553544F52458C45544952BF
:10E4DE00518E45544E4D498F455455524E90494795
:10E4EE0048542428E44E4428CA554E8A00414444D8
:10E4FE0028D341564598474E28C3494E28CE5043FF
:10E50E0028AF515228C9544550B2544F50925452CC
:10E51E002428D5574150A600414228AB414E28CF62
:10E52E0048454EB04FAD574F5049E100434153451A
:10E53E002428D84E54494CB3535228C600414C2877
:10E54E00D6415250545228E2004149549648494C03
:10E55E0045B449445448A400BA00034531E4034687
:10E56E003EE4044EA1E4044414E405495EE403448D
:10E57E0023E40452CDE4034C7CE4034418E4044742
:10E58E004EE40352F8E4024959E40752D4E4054735
:10E59E0049E40652DBE40652E1E40652E7E4035294
:10E5AE00D1E4045319E5024FB3E4044EABE403493E
:10E5BE005BE4045758E5044C83E4045301E503443B
:10E5CE0020E40450BFE4044426E40443FDE3024483
:10E5DE002AE4044C8BE40550C7E404430BE4044CDA
:10E5EE007FE4054306E4034E9EE4055761E50347C9
:10E5FE0046E4045322E50642EFE30642E9E303490B
:10E60E0067E4034EA5E4045427E504452DE40254C3
:10E61E0033E502463CE404530DE504542FE5034E66
:10E62E00A8E4045315E5055542E505575CE5034F8F
:10E63E00B0E4012B0000012D0000012A0000012F83
:10E64E000000015E00000341D8E3034534E4024FAD
:10E65E00B5E4023ECEE3023CC8E3013E0000013DBC
:10E66E000000013C0000045305E5044963E4044145
:10E67E00D4E3045547E5044641E40450C3E404538F
:10E68E0011E50452F4E4044C87E4044537E40443F2
:10E69E000FE4045309E504542BE50441DFE3055070
:10E6AE00B8E405441BE40553FCE4044C78E405533C
:10E6BE001DE504564CE50441DBE307553BE5074CED
:10E6CE006BE4054301E4054853E40542E4E30742E5
:10E6DE00F5E3044D90E4044D99E40250BDE4055475
:10E6EE0035E5075650E5064C72E40752EDE4054D4C
:10E6FE0094E427E738E73FE754E760E76EE777E70C
:10E70E0085E799E7A6E7B7E7C6E7D5E7E3E7F3E7D7
:10E71E0006E815E828E838E84E455854207769741D
:10E72E00686F757420464F520053796E746178008D
:10E73E0052455455524E20776974686F7574204750
:10E74E004F535542004F7574206F6620444154411B
:10E75E000046756E6374696F6E2063616C6C004F5A
:10E76E00766572666C6F77004F7574206F66206DDC
:10E77E00656D6F727900556E646566696E656420AD
:10E78E0073746174656D656E740041727261792087
:10E79E00626F756E647300446F75626C6520646998
:10E7AE006D656E73696F6E0044697669646520628B
:10E7BE0079207A65726F00496C6C6567616C2064B4
:10E7CE0069726563740054797065206D69736D614B
:10E7DE0074636800537472696E6720746F6F206C77
:10E7EE006F6E6700537472696E6720746F6F20636B
:10E7FE006F6D706C65780043616E277420636F6E69
:10E80E0074696E756500556E646566696E65642023
:10E81E0066756E6374696F6E004C4F4F502077694A
:10E82E0074686F757420444F00556E646566696E2A
:10E83E006564207661726961626C6500556E64690B
:10E84E006D656E73696F6E656420617272617900B9
:10E85E000D0A427265616B00206572726F72002044
:10E86E00696E206C696E6520000D0A5265616479CF
:10E87E000D0A002045787472612069676E6F7265AB
:10E88E00640D0A00205265646F2066726F6D2073EE
:10E89E00746172740D0A00FFFFFFFFFFFFFFFFFFA1
:10E8AE00FFFFFFFFFFFFFFFFFFFFFFFFFFFFFFFF6A
:10E8BE00FFFFFFFFFFFFFFFFFFFFFFFFFFFFFFFF5A
:10E8CE00FFFFFFFFFFFFFFFFFFFFFFFFFFFFFFFF4A
:10E8DE00FFFFFFFFFFFFFFFFFFFFFFFFFFFFFFFF3A
:10E8EE00FFFFFFFFFFFFFFFFFFFFFFFFFFFFFFFF2A
:10E8FE00FFFFFFFFFFFFFFFFFFFFFFFFFFFFFFFF1A
:10E90E00FFFFFFFFFFFFFFFFFFFFFFFFFFFFFFFF09
:10E91E00FFFFFFFFFFFFFFFFFFFFFFFFFFFFFFFFF9
:10E92E00FFFFFFFFFFFFFFFFFFFFFFFFFFFFFFFFE9
:10E93E00FFFFFFFFFFFFFFFFFFFFFFFFFFFFFFFFD9
:10E94E00FFFFFFFFFFFFFFFFFFFFFFFFFFFFFFFFC9
:10E95E00FFFFFFFFFFFFFFFFFFFFFFFFFFFFFFFFB9
:10E96E00FFFFFFFFFFFFFFFFFFFFFFFFFFFFFFFFA9
:10E97E00FFFFFFFFFFFFFFFFFFFFFFFFFFFFFFFF99
:10E98E00FFFFFFFFFFFFFFFFFFFFFFFFFFFFFFFF89
:10E99E00FFFFFFFFFFFFFFFFFFFFFFFFFFFFFFFF79
:10E9AE00FFFFFFFFFFFFFFFFFFFFFFFFFFFFFFFF69
:10E9BE00FFFFFFFFFFFFFFFFFFFFFFFFFFFFFFFF59
:10E9CE00FFFFFFFFFFFFFFFFFFFFFFFFFFFFFFFF49
:10E9DE00FFFFFFFFFFFFFFFFFFFFFFFFFFFFFFFF39
:10E9EE00FFFFFFFFFFFFFFFFFFFFFFFFFFFFFFFF29
:10E9FE00FFA90085FA85CCA90485FB85CDA9FF92D8
:10EA0E00CCA9FF85D4A9AD85D5201BFD38A90085DD
:10EA1E00C0D8A2FF9A900BA0FCB955EF204DF0C8BC
:10EA2E00D0F720CDEFA2C6206BEFF03B18A5C605A0
:10EA3E00C7D0432025F0A2D02073ECA920204DF0A2
:10EA4E00A200C8204EEB3880EAF014A4D1A6D0C4A0
:10EA5E00C7D004E4C6F00CE8D001C886C284C32A2D
:10EA6E0049016A2025F0C8082058EB28A5C605C71D
:10EA7E0090D7F099D0E95A20F1EFB03345C6D02F98
:10EA8E00E4C7D02BB180A849FF65CC85CCB002C6B7
:10EA9E00CDA58085FCA58185FDA5FCC5CCA5FDE594
:10EAAE00CDB00CB1FC92FCE6FCD0EEE6FD80EAFAAD
:10EABE00A5C648A5C748A002E8C8BDFF0148D0F8C2
:10EACE00C004904298AA1865CC85FCA90065CD8536
:10EADE00FDA5FCC5D4A5FDE5D5B02BA5CCD002C6B1
:10EAEE00CDC6CCA5CCC580A5CDE5819006B2CC9186
:10EAFE00CC80E868889180D0FAA0028A9180A5FC2B
:10EB0E0085CCA5FD85CDA9FF92CC4C1CEA204DF0FD
:10EB1E004CC5EB86FEB180C8C5FEF005204DF080D9
:10EB2E00F42032F060AAC82022EBB180C93BF00677
:10EB3E00A90D204DF088C8B18084C985C88077A200
:10EB4E00002022EBA90D4C4DF020EEEFF07984C49D
:10EB5E00C8C929F072C95DF06FC97BF06EA2E020C2
:10EB6E0027EE20EEEF20EDEFC922F0B9A6E0E0FE91
:10EB7E00F05CA2E22087ED85C884C9A5E2A6E1D0AB
:10EB8E0022A6E0E080F060E0C8F082E0F8F05FE0FE
:10EB9E00FCF044E0F6F064E0CCF036E0FAF032E05F
:10EBAE00C2F03192E065CF2AAAA001A5E391E065FB
:10EBBE00CE2A85CF86CEA4C9A5C8C920D009B180DA
:10EBCE00C920D085C880F7604C4FED4C7DED4C10C0
:10EBDE00EC4CAFEC4C23ED20EFEB85FD86FC80D6A4
:10EBEE00A5E5A6E46CE200A5E492E24CC5EBA5E433
:10EBFE0092E2A001A5E591E24CC5EB05E3F0C8D089
:10EC0E00B55AA4C4C8B1807AC93DD00BA2E2208700
:10EC1E00ED85C884C98029C8A2E2C93FF00E2087BD
:10EC2E00ED85C884C9A5E22097EC808A2087ED8502
:10EC3E00C884C9A5E32097ECA5E22097EC4CC5EB60
:10EC4E00A2E22057EC4CC5EBB50110082065ECA9EB
:10EC5E002D204DF0800EA90038F5009500A900F585
:10EC6E00019501605AA90048A900B8A010C90590E5
:10EC7E0003E98538360036012A88D0F1093070E76D
:10EC8E00204DF068D0FA7A60484A4A4A4A20A0ECF1
:10EC9E0068290F186930C93A90026906204DF06054
:10ECAE005AA4C4B1807AC97DF056A5C605C7D04B0B
:10ECBE00A5E205E3D045E0CCD00FA5FA85CCA5FBA7
:10ECCE0085CDA9FF92CC4CC5EBE0FAD02EA5FA85E6
:10ECDE00FCA5FB85FDB2FCC9FFF011A002B1FC182A
:10ECEE0065FC85FCA90065FD85FD80E9A5FC85CC4C
:10ECFE00A5FD85CDA9FF92CC4CC5EBA5E24CB2EBA0
:10ED0E00A5E205E3F03AA4C08888881002A000842A
:10ED1E00C04CC5EBA5C605C7F00C2038EDA5E285A5
:10ED2E00C6A5E385C7604C1CEA5AA4C0A58099000D
:10ED3E00AFC8A5819900AFC8689900AFC884C060FC
:10ED4E00A4C0F02688B900AF4888B900AF85818885
:10ED5E0084C0B900AF8580B28085C685D0A001B1D0
:10ED6E008085C785D168A84C58EB384C1CEA8820A2
:10ED7E0038EDA8C8C84C58EB20A6ED20EEEFF07089
:10ED8E00C8C929F06BC920F06748E8E820A6EDCA8B
:10ED9E00CA682057EE80E4206BEFD05420EEEFC807
:10EDAE00C93FD0155AA58048A5814820CDEF2087B0
:10EDBE00ED6885816885807A60C92DD008206BEF5B
:10EDCE002065EC802BC924D005204AF08020C92272
:10EDDE00D00720EEEFC8C88015C928F09B2027EE7B
:10EDEE00A10048F600D002F601A100950168950039
:10EDFE0060B50085FCB50185FD74007401CD360348
:10EE0E00A5FC05FDF01146FD66FC9003203AEE16BA
:10EE1E0002D0EB3603D0E960C93AD0272087ED1631
:10EE2E00003601A5CC9502A5CD950318B500750247
:10EE3E009500B5017503950160204CEEE8B501F51E
:10EE4E000380F30A0980805AC92BF0DFC92AF0A18A
:10EE5E00C92FF053C95BF073C95DF07EC92CF05316
:10EE6E00C940F064CAC92DF0D0C97CF047C95EF024
:10EE7E004DC926F034C923F070493C85FC2048EE7C
:10EE8E00B5011006A5FCD013F00E1500F006A5FC7A
:10EE9E00C9028008A5FCF00338800118A90069009A
:10EEAE0029019500740160805420BCEEE8B501354F
:10EEBE000395016020C7EEE8B501150380F320D15C
:10EECE00EEE8B501550380E94C61EFB5000A9500F7
:10EEDE00B5012A9501D602D0F260B5014A9501B569
:10EEEE00006A9500D602D0F2602048EEB5011500FA
:10EEFE00D00474008004A901950074016064FE645E
:10EF0E00FFB5011005E6FE2065ECB5031009E6FF1E
:10EF1E00E8E82065ECCACA203AEFA5FE45FFF00AE4
:10EF2E002065ECDAA2CA2065ECFA605AA010A9009E
:10EF3E0085CB160036012A26CBD50248A5CBF50384
:10EF4E00900885CB68F502F600C96888D0E485CABA
:10EF5E007A60203AEEA1009500740160740074018D
:10EF6E00740320EEEF84FEC930F031801348A90AF5
:10EF7E0095022000EE7403689502203AEEC8B18027
:10EF8E004930C90A90E7C4FE6048A91095022000D6
:10EF9E00EE7403689502203AEEC8B1804930C90A72
:10EFAE0090E7493038E937C90A9004C91090DAC49D
:10EFBE00FE60C91BF003C81012A90D204DF0A90068
:10EFCE008580A9028581A0018830EE204AF0C9080B
:10EFDE00F0F6C90DD002A9009180D0D6A860C8B1B4
:10EFEE008060A5FAA6FBA002900AA68118A58071E2
:10EFFE00809003E886818580E4CD9004C5CCB01561
:10F00E00B28085D0C5C688B180C885D1E5C790DDF0
:10F01E0018A5D0A6D16020F1EFB00585C686C760D1
:10F02E004C1CEA203DF0F012203DF0F0FB60203346
:10F03E00FDF0072028FDC903F0E6602037F02039E7
:10F04E00FD600D4F4B0DFFFFFFFFFFFFFFFFFFFFAB
:10F05E00FFFFFFFFFFFFFFFFFFFFFFFFFFFFFFFFB2
:10F06E00FFFFFFFFFFFFFFFFFFFFFFFFFFFFFFFFA2
:10F07E00FFFFFFFFFFFFFFFFFFFFFFFFFFFFFFFF92
:10F08E00FFFFFFFFFFFFFFFFFFFFFFFFFFFFFFFF82
:10F5FE00FFA2FF9A201BFDA9008510851185178596
:10F60E001885158516851BA9538519A900851C8596
:10F61E001D851E852085218522BA861FA910852865
:10F62E00A9FC852920E2FA8018F818A9056905C9F0
:10F63E000AD8F02DA9728528A9FC8529A9004C7A33
:10F64E00F60FA9108FA90DA9798528A9FC8529A9DE
:10F65E00014C7AF6A9818528A9FC8529A9034C7A43
:10F66E00F6A9918528A9FC8529A910851B20E2FA07
:10F67E00A92B8528A9FC852920E2FA203DFBA200B2
:10F68E002086FB2091FBC900F0E6C944D0034CCA8A
:10F69E00F6C947D0034CFFF7C953D0034C2CF8C919
:10F6AE004CD0034CB4F8C952D0034CBBF9A94885D1
:10F6BE0028A9FC852920E2FA4C7FF6E82086FB205B
:10F6CE009CFBA52CD0172086FBB500D0E0A510180A
:10F6DE0069808512A511690085134C23F7A52A852B
:10F6EE0010A52B85112086FBB500C92CF007C9008B
:10F6FE00D0BB4CDCF6E82086FB209CFB2086FBA5CD
:10F70E002CF0AAB500D0A6A52A3869008512A52B23
:10F71E0069008513A51029F0852AA511852BA9004E
:10F72E0085142065F7A52A186910852AA52B69006E
:10F73E00852B2033FDD011A514C90290E5A51285A5
:10F74E0010A51385114C7FF6A52A8510A52B8511C2
:10F75E002028FD4C7FF6A52B20F0FAA52A20F0FAE2
:10F76E00A9508528A9FC852920E2FAA200A0002034
:10F77E00AFF7E010D0F9A9538528A9FC852920E21E
:10F78E00FAA200B500C920900AC97FB0062039FD43
:10F79E004CA7F7A92E2039FDE8E010D0E64C33FB3C
:10F7AE00A9202039FDA514D01B9838E510290FF09B
:10F7BE000FA92095002039FDA9202039FDE8C86049
:10F7CE00A9018514A514C901D0E7B12A950020F02E
:10F7DE00FAE8C89818652A8528A52B69008529A5F9
:10F7EE0028C512D00AA529C513D004A90285146014
:10F7FE00E82086FB209CFBB500F0034CBCF6A52C44
:10F80E00F008A52A8520A52B8521A61F9AA521489B
:10F81E00A52048A52248A51CA61DA41E40E82086AA
:10F82E00FB209CFB2086FBB500F0034CBCF6A52C00
:10F83E00F008A52A8517A52B8518A51820F0FAA57E
:10F84E001720F0FAA9538528A9FC852920E2FAA0F1
:10F85E0000B11720F0FAA9202039FD203DFBA200AF
:10F86E002086FBB500D010A5171869018517A518BD
:10F87E00690085184C49F8C92DD010A51738E90133
:10F88E008517A518E90085184C49F8C92ED0034CE8
:10F89E007FF6209CFBA52CD0034CBCF6A52AA0001D
:10F8AE0091174C76F8E82086FB209CFB2086FBB552
:10F8BE0000D0E62028FD2091FBC953F07EC93AF016
:10F8CE000EC90DF0EEC90AF0EA2028FD4CD0F82042
:10F8DE0008FB8526852C2008FB85251865268526A0
:10F8EE002008FB85241865268526A52418652A85FB
:10F8FE0024A525652B8525A0002008FB851A1865F3
:10F90E00268526A52CF0172008FB48186526852687
:10F91E00A51AD005689124C84868C62CD0E92008DD
:10F92E00FB186526D007A51AF09F4C7FF6A92E85E9
:10F93E0028A9FC852920E2FA4C7FF62028FD851A9D
:10F94E002008FB852C85262008FB85251865268535
:10F95E00262008FB85241865268526A52418652AE9
:10F96E008524A525652B8525A000C62CC62CC62C66
:10F97E00F0192008FB481865268526A51AC931D02E
:10F98E0005689124C84868C62CD0E72008FB186586
:10F99E0026C9FFD009A51AC939F00E4CD8F8A93BD3
:10F9AE008528A9FC852920E2FA4C7FF6E82086FB03
:10F9BE002091FBC900D006207AFA4C7FF6A0BD84B8
:10F9CE002AA0FC842BA000D12AF013C848B12AF03B
:10F9DE000968C8C8C8C8C84CD6F9684CBCF6C8B1C6
:10F9EE002AC980D019C8B12A852CC8B12A852BA561
:10F9FE002C852AA000E8B5002091FB4CD6F9C90051
:10FA0E00F066C8B12AAAC8C8B12A8528C8B12A8505
:10FA1E0029842C20E2FAA93D2039FDA42C8888885F
:10FA2E0088B12A8523C901D008B50020F0FA4C4AC6
:10FA3E00FAB50120F0FAB50020F0FAA9202039FD20
:10FA4E008626203DFBA200209CFBA52CF017A626A7
:10FA5E00A523C901D007A52A95004C74FAA52A95AD
:10FA6E0000A52B95014C7FF64CBCF6A9A08528A9C4
:10FA7E00FC852920E2FAA51C20F0FAA9A38528A965
:10FA8E00FC852920E2FAA51D20F0FAA9A78528A950
:10FA9E00FC852920E2FAA51E20F0FAA9AB8528A93B
:10FAAE00FC852920E2FAA51F20F0FAA9B28528A923
:10FABE00FC852920E2FAA52120F0FAA52020F0FAF3
:10FACE00A9B78528A9FC852920E2FAA52220F0FAFB
:10FADE004C33FBA000B128F0072039FDC84CE4FAE6
:10FAEE0060484A4A4A4A20F9FA68290F186930C90B
:10FAFE003A90031869074C39FDA9002011FB0A0A38
:10FB0E000A0A85272028FD2091FBC9309015C93A95
:10FB1E00900BC941900DC947B00938E90738E93053
:10FB2E0018652760A90D2039FDA90A4C39FDA200E0
:10FB3E002028FDC90DF038C90AF034C908F019C9DA
:10FB4E007FF015C92090E9C980B0E5E00FB0E195CE
:10FB5E0000E82039FD4C3FFBE000F0D4CAA9082094
:10FB6E0039FDA9202039FDA9082039FD4C3FFB2085
:10FB7E0033FBA900950060B500C920D004E84C867F
:10FB8E00FB60C9619006C97BB00269E060A900857F
:10FB9E002A852B852CB5002091FBC930902DC93AB2
:10FBAE00900BC9419025C947B02138E90738E93093
:10FBBE00062A262B062A262B062A262B062A262B33
:10FBCE0018652A852AE62CE84CA4FB6048086829AB
:10FBDE0010F02CD868851C8A851D98851E68852294
:10FBEE006838E902852068E9008521BA861FA99A3E
:10FBFE008528A9FC852920E2FA207AFA4C7FF6683E
:10FC0E00400D0A556E6976657273616C204D6F6E8C
:10FC1E0069746F7220363530320D0A005D20004552
:10FC2E0072726F7220696865780D0A004572726F84
:10FC3E007220737265630D0A004572726F720D0A3F
:10FC4E0000203A00203A20003A3030303030303048
:10FC5E003146460D0A00533930333030303046438A
:10FC6E000D0A00363530320D0A0036354330320D6E
:10FC7E000A005236354330322F5736354330320D67
:10FC8E000A005250324130330D0A0042524B0D0AD7
:10FC9E0000413D0020583D0020593D002053503D6D
:10FCAE003031002050433D00205053523D00410161
:10FCBE001C000BFD58011D000DFD59011E000FFD0E
:10FCCE005380E1FC00005080EDFC000000000000BD
:10FCDE00000050011F0011FD000000000000430253
:10FCEE00200014FD5380FFFC000000000000000007
:10FCFE005201220017FD00000000000041005800D4
:10FD0E00590053500050430050535200A9038D1810
:10FD1E00B0EAEAA9158D18B060AD18B02901F0F956
:10FD2E00AD19B060AD18B029016048AD18B0290208
:10FD3E00F0F9688D19B060FFFFFFFFFFFFFFFFFFB7
:10FD4E00FFFFFFFFFFFFFFFFFFFFFFFFFFFFFFFFB5
:10FD5E00FFFFFFFFFFFFFFFFFFFFFFFFFFFFFFFFA5
:10FD6E00FFFFFFFFFFFFFFFFFFFFFFFFFFFFFFFF95
:10FD7E00FFFFFFFFFFFFFFFFFFFFFFFFFFFFFFFF85
:10FD8E00FFFFFFFFFFFFFFFFFFFFFFFFFFFFFFFF75
:10FD9E00FFFFFFFFFFFFFFFFFFFFFFFFFFFFFFFF65
:10FDAE00FFFFFFFFFFFFFFFFFFFFFFFFFFFFFFFF55
:10FDBE00FFFFFFFFFFFFFFFFFFFFFFFFFFFFFFFF45
:10FDCE00FFFFFFFFFFFFFFFFFFFFFFFFFFFFFFFF35
:10FDDE00FFFFFFFFFFFFFFFFFFFFFFFFFFFFFFFF25
:10FDEE00FFFFFFFFFFFFFFFFFFFFFFFFFFFFFFFF15
:10FDFE00FFD8A2FF9AA00CB949FE99050288D0F748
:10FE0E00B973FEF0062040E1C8D0F5203DE190FB2D
:10FE1E0029DFC957F007C943D0D74C03C04C0000A7
:10FE2E0048AD18B02902F0F9688D19B060AD18B060
:10FE3E002901C901D003AD19B060603CFE2FFE4907
:10FE4E00FE49FE56FE6AFE85E2A5DFD0038DFEBF9B
:10FE5E00092085DF68090448A5E24048A5DC092091
:10FE6E0085DC68400D0A36353032204568424153F4
:10FE7E004943205B435D6F6C642F5B575D61726D10
:10FE8E00203F00446572697665642066726F6D204E
:10FE9E0045684241534943FFFFFFFFFFFFFFFFFF4E
:10FEAE00FFFFFFFFFFFFFFFFFFFFFFFFFFFFFFFF54
:10FEBE00FFFFFFFFFFFFFFFFFFFFFFFFFFFFFFFF44
:10FECE00FFFFFFFFFFFFFFFFFFFFFFFFFFFFFFFF34
:10FEDE00FFFFFFFFFFFFFFFFFFFFFFFFFFFFFFFF24
:10FEEE00FFFFFFFFFFFFFFFFFFFFFFFFFFFFFFFF14
:10FEFE00FFFFFFFFFFFFFFFFFFFFFFFFFFFFFFFF04
:10FF0E00FFFFFFFFFFFFFFFFFFFFFFFFFFFFFFFFF3
:10FF1E00FFFFFFFFFFFFFFFFFFFFFFFFFFFFFFFFE3
:10FF2E00FFFFFFFFFFFFFFFFFFFFFFFFFFFFFFFFD3
:10FF3E00FFFFFFFFFFFFFFFFFFFFFFFFFFFFFFFFC3
:10FF4E00FFFFFFFFFFFFFFFFFFFFFFFFFFFFFFFFB3
:10FF5E00FFFFFFFFFFFFFFFFFFFFFFFFFFFFFFFFA3
:10FF6E00FFFFFFFFFFFFFFFFFFFFFFFFFFFFFFFF93
:10FF7E00FFFFFFFFFFFFFFFFFFFFFFFFFFFFFFFF83
:10FF8E00FFFFFFFFFFFFFFFFFFFFFFFFFFFFFFFF73
:10FF9E00FFFFFFFFFFFFFFFFFFFFFFFFFFFFFFFF63
:10FFAE00FFFFFFFFFFFFFFFFFFFFFFFFFFFFFFFF53
:10FFBE00FFFFFFFFFFFFFFFFFFFFFFFFFFFFFFFF43
:10FFCE00FFFFFFFFFFFFFFFFFFFFFFFFFFFFFFFF33
:10FFDE00FFFFFFFFFFFFFFFFFFFFFFFFFFFFFFFF23
:10FFEE00FFFFFFFFFFFFFFFFFFFFFF6AFE00FE5652
:02FFFE00FE0003
:020000040001F9
:10000000080E0001B16F04012095C294CA9420919A
:10001000C290CA90000E186F000EC16E000EC96E1D
:10002000000E086F000EBF6E000EC76E000E106F40
:10003000000EC06E000EC86E3F0E0201046F040178
:100040000097C696BC0E436F000E446F050E456FB9
:10005000000E476F4691468B468F0091000E0201BD
:10006000016FBE80C690040100990189C688009581
:10007000000E0201036FBE84C6940401009B000EB3
:100080000201066FBE8AC69A010ED56FA00ED46F0C
:10009000D189D18B0401009FC68E070E0201766FB5
:1000A0000401009DBE8CC69C260E0201076FD28FF4
:1000B000000E046E000E036E000E0324016EC00ECF
:1000C0000420026E02C5C1F401C5BFF4BE94FF0E48
:1000D0000324F66EBF0E0420F76E0800F5C4C0F4CA
:1000E000BE84034A042A400E045CD8A0E5D7000E63
:1000F0000401186F1969C968000E086F0969C7689B
:10010000000E106F1169C8681F0E0201636F1E0E8A
:10011000646F040E656F1D0E676F1C0E686F000E16
:100120000001D56F000ED66F350ED86F040ED96F53
:100130002A0EDA6F370EDB6F020EDC6F080EDD6FF2
:10014000200EDE6F800EDF6F800ED76F820ED66FAF
:10015000010ED56F000ED66F350ED86F040ED96F15
:100160002A0EDA6F370EDB6F020EDC6F040EDD6FC6
:10017000200EDE6F800EDF6F800ED76F820ED66F7F
:10018000020ED56F000ED66F020ED86F030ED96F18
:10019000060EDA6F070EDB6F020EDC6F040EDD6FEA
:1001A000200EDE6F800EDF6F800ED76F820ED66F4F
:1001B000040ED56F000ED66F350ED86F7F0ED96F37
:1001C0007F0EDA6F7F0EDB6F010EDC6F000EDD6FCE
:1001D000000EDE6F000EDF6F820ED76F8C0ED66FB3
:1001E000010E0201066F020E036F050E016F550E20
:1001F0000401596FAA0E596F5991080E5D6F000ED8
:100200005E6F000E5F6F550E596FAA0E596F5981C0
:10021000B892A882D68EC280C284FFD7B892D1C4C9
:1002200002F5CFC401F5CEB80CD0190E011805E1C6
:10023000B00E0218D8B4D0C4C9F20001D785D79542
:100240001100000EC86E180E011807E1B00E02185A
:10025000D8A403D0B7C4C0F40BD0190E011807E11D
:10026000B00E0218D8A403D0C7C2C0F401D0C06831
:10027000CEB6FED70001D785D795C8681100026AAF
:10028000016A0401080E5D6F000E5E6F000E5F6F65
:0A029000000EF86E000100EF80F090
:02029C0011004F
:020000040020DA
:10000000FF0FFF0FFF0FFF0FFF0FFF0FFF0FFF0F80
:10001000FF0FFF0FFF0FFF0FFF0FFF0FFF0FFF0F70
:10002000FF0FFF0FFF0FFF0FFF0FFF0FFF0FFF0F60
:10003000FF0FFF0FFF0FFF0FFF0FFF0FFF0FFF0F50
:020000040030CA
:0A0000008CFFFFF79FFFFFFFFFFFDB
:00000001FF
